{
  "contractName": "SaqueRetirada",
  "abi": [
    {
      "anonymous": false,
      "inputs": [
        {
          "indexed": true,
          "internalType": "address",
          "name": "user",
          "type": "address"
        },
        {
          "indexed": false,
          "internalType": "uint256",
          "name": "amount",
          "type": "uint256"
        }
      ],
      "name": "Deposit",
      "type": "event"
    },
    {
      "anonymous": false,
      "inputs": [
        {
          "indexed": true,
          "internalType": "address",
          "name": "user",
          "type": "address"
        },
        {
          "indexed": false,
          "internalType": "uint256",
          "name": "amount",
          "type": "uint256"
        }
      ],
      "name": "Withdrawal",
      "type": "event"
    },
    {
      "inputs": [
        {
          "internalType": "address",
          "name": "",
          "type": "address"
        }
      ],
      "name": "balances",
      "outputs": [
        {
          "internalType": "uint256",
          "name": "",
          "type": "uint256"
        }
      ],
      "stateMutability": "view",
      "type": "function",
      "constant": true
    },
    {
      "inputs": [],
      "name": "deposit",
      "outputs": [],
      "stateMutability": "payable",
      "type": "function",
      "payable": true
    },
    {
      "inputs": [],
      "name": "getBalance",
      "outputs": [
        {
          "internalType": "uint256",
          "name": "",
          "type": "uint256"
        }
      ],
      "stateMutability": "view",
      "type": "function",
      "constant": true
    },
    {
      "inputs": [
        {
          "internalType": "uint256",
          "name": "amount",
          "type": "uint256"
        }
      ],
      "name": "withdraw",
      "outputs": [],
      "stateMutability": "nonpayable",
      "type": "function"
    },
    {
      "inputs": [],
      "name": "withdrawAll",
      "outputs": [],
      "stateMutability": "nonpayable",
      "type": "function"
    }
  ],
  "bytecode": "0x608060405234801561001057600080fd5b50610a9c806100206000396000f3fe60806040526004361061004a5760003560e01c806312065fe01461004f57806327e235e31461007a5780632e1a7d4d146100b7578063853828b6146100e0578063d0e30db0146100f7575b600080fd5b34801561005b57600080fd5b50610064610101565b604051610071919061090c565b60405180910390f35b34801561008657600080fd5b506100a1600480360381019061009c9190610650565b610147565b6040516100ae919061090c565b60405180910390f35b3480156100c357600080fd5b506100de60048036038101906100d99190610679565b61015f565b005b3480156100ec57600080fd5b506100f5610376565b005b6100ff61053e565b005b60008060003373ffffffffffffffffffffffffffffffffffffffff1673ffffffffffffffffffffffffffffffffffffffff16815260200190815260200160002054905090565b60006020528060005260406000206000915090505481565b600081116101a2576040517f08c379a0000000000000000000000000000000000000000000000000000000008152600401610199906108ac565b60405180910390fd5b806000803373ffffffffffffffffffffffffffffffffffffffff1673ffffffffffffffffffffffffffffffffffffffff168152602001908152602001600020541015610223576040517f08c379a000000000000000000000000000000000000000000000000000000000815260040161021a9061088c565b60405180910390fd5b806000803373ffffffffffffffffffffffffffffffffffffffff1673ffffffffffffffffffffffffffffffffffffffff16815260200190815260200160002060008282546102719190610999565b9250508190555060003373ffffffffffffffffffffffffffffffffffffffff168260405161029e90610857565b60006040518083038185875af1925050503d80600081146102db576040519150601f19603f3d011682016040523d82523d6000602084013e6102e0565b606091505b5050905080610324576040517f08c379a000000000000000000000000000000000000000000000000000000000815260040161031b906108ec565b60405180910390fd5b3373ffffffffffffffffffffffffffffffffffffffff167f7fcf532c15f0a6db0bd6d0e038bea71d30d808c7d98cb3bf7268a95bf5081b658360405161036a919061090c565b60405180910390a25050565b60008060003373ffffffffffffffffffffffffffffffffffffffff1673ffffffffffffffffffffffffffffffffffffffff168152602001908152602001600020549050600081116103fc576040517f08c379a00000000000000000000000000000000000000000000000000000000081526004016103f3906108cc565b60405180910390fd5b60008060003373ffffffffffffffffffffffffffffffffffffffff1673ffffffffffffffffffffffffffffffffffffffff1681526020019081526020016000208190555060003373ffffffffffffffffffffffffffffffffffffffff168260405161046690610857565b60006040518083038185875af1925050503d80600081146104a3576040519150601f19603f3d011682016040523d82523d6000602084013e6104a8565b606091505b50509050806104ec576040517f08c379a00000000000000000000000000000000000000000000000000000000081526004016104e3906108ec565b60405180910390fd5b3373ffffffffffffffffffffffffffffffffffffffff167f7fcf532c15f0a6db0bd6d0e038bea71d30d808c7d98cb3bf7268a95bf5081b6583604051610532919061090c565b60405180910390a25050565b60003411610581576040517f08c379a00000000000000000000000000000000000000000000000000000000081526004016105789061086c565b60405180910390fd5b346000803373ffffffffffffffffffffffffffffffffffffffff1673ffffffffffffffffffffffffffffffffffffffff16815260200190815260200160002060008282546105cf9190610943565b925050819055503373ffffffffffffffffffffffffffffffffffffffff167fe1fffcc4923d04b559f4d29a8bfc6cda04eb5b0d3c460751c2402c5c5cc9109c3460405161061c919061090c565b60405180910390a2565b60008135905061063581610a38565b92915050565b60008135905061064a81610a4f565b92915050565b60006020828403121561066257600080fd5b600061067084828501610626565b91505092915050565b60006020828403121561068b57600080fd5b60006106998482850161063b565b91505092915050565b60006106af602583610932565b91507f4465706f73697420616d6f756e74206d7573742062652067726561746572207460008301527f68616e20300000000000000000000000000000000000000000000000000000006020830152604082019050919050565b6000610715601483610932565b91507f496e73756666696369656e742062616c616e63650000000000000000000000006000830152602082019050919050565b6000610755602883610932565b91507f5769746864726177616c20616d6f756e74206d7573742062652067726561746560008301527f72207468616e20300000000000000000000000000000000000000000000000006020830152604082019050919050565b60006107bb601683610932565b91507f4e6f2062616c616e636520746f207769746864726177000000000000000000006000830152602082019050919050565b60006107fb600083610927565b9150600082019050919050565b6000610815601183610932565b91507f5769746864726177616c206661696c65640000000000000000000000000000006000830152602082019050919050565b610851816109ff565b82525050565b6000610862826107ee565b9150819050919050565b60006020820190508181036000830152610885816106a2565b9050919050565b600060208201905081810360008301526108a581610708565b9050919050565b600060208201905081810360008301526108c581610748565b9050919050565b600060208201905081810360008301526108e5816107ae565b9050919050565b6000602082019050818103600083015261090581610808565b9050919050565b60006020820190506109216000830184610848565b92915050565b600081905092915050565b600082825260208201905092915050565b600061094e826109ff565b9150610959836109ff565b9250827fffffffffffffffffffffffffffffffffffffffffffffffffffffffffffffffff0382111561098e5761098d610a09565b5b828201905092915050565b60006109a4826109ff565b91506109af836109ff565b9250828210156109c2576109c1610a09565b5b828203905092915050565b60006109d8826109df565b9050919050565b600073ffffffffffffffffffffffffffffffffffffffff82169050919050565b6000819050919050565b7f4e487b7100000000000000000000000000000000000000000000000000000000600052601160045260246000fd5b610a41816109cd565b8114610a4c57600080fd5b50565b610a58816109ff565b8114610a6357600080fd5b5056fea26469706673582212208cdf2fa74526bde58a65c983d657b07f400d4bb80a30a0cf5c63f49534d6d3b664736f6c63430008000033",
  "immutableReferences": {},
  "source": "// SPDX-License-Identifier: MIT\r\npragma solidity ^0.8.0;\r\n\r\ncontract SaqueRetirada {\r\n    // Mapeamento para armazenar o saldo de cada usurio\r\n    mapping(address => uint256) public balances;\r\n\r\n    // Eventos para registrar depsitos e retiradas\r\n    event Deposit(address indexed user, uint256 amount);\r\n    event Withdrawal(address indexed user, uint256 amount);\r\n\r\n    // Funo para depositar MATIC no contrato\r\n    function deposit() external payable {\r\n        require(msg.value > 0, \"Deposit amount must be greater than 0\");\r\n\r\n        // Atualiza o saldo do usurio\r\n        balances[msg.sender] += msg.value;\r\n\r\n        // Emite o evento de depsito\r\n        emit Deposit(msg.sender, msg.value);\r\n    }\r\n\r\n    // Funo para verificar o saldo do usurio\r\n    function getBalance() external view returns (uint256) {\r\n        return balances[msg.sender];\r\n    }\r\n\r\n    // Funo para retirar MATIC do contrato\r\n    function withdraw(uint256 amount) external {\r\n        require(amount > 0, \"Withdrawal amount must be greater than 0\");\r\n        require(balances[msg.sender] >= amount, \"Insufficient balance\");\r\n\r\n        // Atualiza o saldo do usurio\r\n        balances[msg.sender] -= amount;\r\n\r\n        // Transfere o MATIC de volta para o usurio\r\n        (bool success, ) = msg.sender.call{value: amount}(\"\");\r\n        require(success, \"Withdrawal failed\");\r\n\r\n        // Emite o evento de retirada\r\n        emit Withdrawal(msg.sender, amount);\r\n    }\r\n\r\n    // Funo para retirar todo o saldo do usurio\r\n    function withdrawAll() external {\r\n        uint256 balance = balances[msg.sender];\r\n        require(balance > 0, \"No balance to withdraw\");\r\n\r\n        // Zera o saldo do usurio\r\n        balances[msg.sender] = 0;\r\n\r\n        // Transfere o MATIC de volta para o usurio\r\n        (bool success, ) = msg.sender.call{value: balance}(\"\");\r\n        require(success, \"Withdrawal failed\");\r\n\r\n        // Emite o evento de retirada\r\n        emit Withdrawal(msg.sender, balance);\r\n    }\r\n}",
  "sourcePath": "C:\\projetos\\smart-contract-deposito-retirada\\contracts\\SaqueRetirada.sol",
  "compiler": {
    "name": "solc",
    "version": "0.8.0+commit.c7dfd78e.Emscripten.clang"
  },
  "schemaVersion": "3.4.16",
  "updatedAt": "2025-02-13T02:05:49.313Z",
  "networkType": "ethereum",
  "devdoc": {
    "kind": "dev",
    "methods": {},
    "version": 1
  },
  "userdoc": {
    "kind": "user",
    "methods": {},
    "version": 1
  }
}