{
  "contractName": "SaqueRetirada",
  "abi": [
    {
      "anonymous": false,
      "inputs": [
        {
          "indexed": true,
          "internalType": "address",
          "name": "usuario",
          "type": "address"
        },
        {
          "indexed": false,
          "internalType": "uint256",
          "name": "valor",
          "type": "uint256"
        }
      ],
      "name": "Deposito",
      "type": "event"
    },
    {
      "anonymous": false,
      "inputs": [
        {
          "indexed": true,
          "internalType": "address",
          "name": "usuario",
          "type": "address"
        },
        {
          "indexed": false,
          "internalType": "uint256",
          "name": "valor",
          "type": "uint256"
        }
      ],
      "name": "Retirada",
      "type": "event"
    },
    {
      "inputs": [
        {
          "internalType": "address",
          "name": "",
          "type": "address"
        }
      ],
      "name": "saldos",
      "outputs": [
        {
          "internalType": "uint256",
          "name": "",
          "type": "uint256"
        }
      ],
      "stateMutability": "view",
      "type": "function"
    },
    {
      "inputs": [],
      "name": "depositar",
      "outputs": [],
      "stateMutability": "payable",
      "type": "function"
    },
    {
      "inputs": [],
      "name": "consultarSaldo",
      "outputs": [
        {
          "internalType": "uint256",
          "name": "",
          "type": "uint256"
        }
      ],
      "stateMutability": "view",
      "type": "function"
    },
    {
      "inputs": [
        {
          "internalType": "uint256",
          "name": "valor",
          "type": "uint256"
        }
      ],
      "name": "retirar",
      "outputs": [],
      "stateMutability": "nonpayable",
      "type": "function"
    },
    {
      "inputs": [],
      "name": "retirarTudo",
      "outputs": [],
      "stateMutability": "nonpayable",
      "type": "function"
    }
  ],
  "bytecode": "0x608060405234801561001057600080fd5b506104ef806100206000396000f3fe60806040526004361061004a5760003560e01c80633d922f901461004f578063644deb3614610059578063c68c06121461006e578063d6f033fd146100a4578063e8b1298f146100b9575b600080fd5b6100576100d9565b005b34801561006557600080fd5b50610057610162565b34801561007a57600080fd5b5061008e610089366004610304565b610259565b60405161009b919061046b565b60405180910390f35b3480156100b057600080fd5b5061008e61026b565b3480156100c557600080fd5b506100576100d4366004610332565b61027e565b600034116101025760405162461bcd60e51b81526004016100f990610423565b60405180910390fd5b3360009081526020819052604081208054349290610121908490610474565b909155505060405133907f453529dac6ef979a41d67fbeeabdfae29903c185f64d77aa690df9eca5f1aa609061015890349061046b565b60405180910390a2565b336000908152602081905260409020548061018f5760405162461bcd60e51b81526004016100f9906103a4565b336000818152602081905260408082208290555190919083906101b19061034a565b60006040518083038185875af1925050503d80600081146101ee576040519150601f19603f3d011682016040523d82523d6000602084013e6101f3565b606091505b50509050806102145760405162461bcd60e51b81526004016100f99061034d565b336001600160a01b03167f0f03616d91da279c94798e7c7e176bf320a7e4722e68b134c8f83dbc0bf43a4b8360405161024d919061046b565b60405180910390a25050565b60006020819052908152604090205481565b3360009081526020819052604090205490565b6000811161029e5760405162461bcd60e51b81526004016100f9906103db565b336000908152602081905260409020548111156102cd5760405162461bcd60e51b81526004016100f990610378565b33600090815260208190526040812080548392906102ec90849061048c565b9091555050604051600090339083906101b19061034a565b600060208284031215610315578081fd5b81356001600160a01b038116811461032b578182fd5b9392505050565b600060208284031215610343578081fd5b5035919050565b90565b60208082526011908201527046616c6861206e6120726574697261646160781b604082015260600190565b60208082526012908201527153616c646f20696e737566696369656e746560701b604082015260600190565b60208082526019908201527f4e656e68756d2073616c646f2070617261207265746972617200000000000000604082015260600190565b60208082526028908201527f4f2076616c6f72206461207265746972616461206465766520736572206d616960408201526706f722071756520360c41b606082015260800190565b60208082526028908201527f4f2076616c6f7220646f206465706f7369746f206465766520736572206d616960408201526706f722071756520360c41b606082015260800190565b90815260200190565b60008219821115610487576104876104a3565b500190565b60008282101561049e5761049e6104a3565b500390565b634e487b7160e01b600052601160045260246000fdfea2646970667358221220818bfcad51cf3b615c3ef11e9f483a3f46582137e2f10ead8e36480d3d3167c464736f6c63430008000033",
  "immutableReferences": {},
  "source": "// SPDX-License-Identifier: MIT\r\npragma solidity ^0.8.0;\r\n\r\ncontract SaqueRetirada {\r\n\r\n    mapping(address => uint256) public saldos;\r\n\r\n    event Deposito(address indexed usuario, uint256 valor);\r\n    event Retirada(address indexed usuario, uint256 valor);\r\n\r\n    function depositar() external payable {\r\n        require(msg.value > 0, \"O valor do deposito deve ser maior que 0\");\r\n\r\n        saldos[msg.sender] += msg.value;\r\n\r\n        emit Deposito(msg.sender, msg.value);\r\n    }\r\n\r\n    function consultarSaldo() external view returns (uint256) {\r\n        return saldos[msg.sender];\r\n    }\r\n\r\n    function retirar(uint256 valor) external {\r\n        require(valor > 0, \"O valor da retirada deve ser maior que 0\");\r\n        require(saldos[msg.sender] >= valor, \"Saldo insuficiente\");\r\n\r\n        saldos[msg.sender] -= valor;\r\n\r\n        (bool sucesso, ) = msg.sender.call{value: valor}(\"\");\r\n        require(sucesso, \"Falha na retirada\");\r\n\r\n        emit Retirada(msg.sender, valor);\r\n    }\r\n\r\n    function retirarTudo() external {\r\n        uint256 saldo = saldos[msg.sender];\r\n        require(saldo > 0, \"Nenhum saldo para retirar\");\r\n\r\n        saldos[msg.sender] = 0;\r\n\r\n        (bool sucesso, ) = msg.sender.call{value: saldo}(\"\");\r\n        require(sucesso, \"Falha na retirada\");\r\n\r\n        emit Retirada(msg.sender, saldo);\r\n    }\r\n}",
  "sourcePath": "C:\\projetos\\smart-contract-deposito-retirada\\contracts\\SaqueRetirada.sol",
  "compiler": {
    "name": "solc",
    "version": "0.8.0+commit.c7dfd78e.Emscripten.clang"
  },
  "schemaVersion": "3.4.16",
  "updatedAt": "2025-02-15T02:44:22.879Z",
  "devdoc": {
    "kind": "dev",
    "methods": {},
    "version": 1
  },
  "userdoc": {
    "kind": "user",
    "methods": {},
    "version": 1
  }
}